{
  "_format": "hh-sol-artifact-1",
  "contractName": "Book",
  "sourceName": "contracts/Book.sol",
  "abi": [
    {
      "inputs": [],
      "stateMutability": "nonpayable",
      "type": "constructor"
    },
    {
      "anonymous": false,
      "inputs": [
        {
          "indexed": true,
          "internalType": "address",
          "name": "owner",
          "type": "address"
        },
        {
          "indexed": true,
          "internalType": "address",
          "name": "approved",
          "type": "address"
        },
        {
          "indexed": true,
          "internalType": "uint256",
          "name": "tokenId",
          "type": "uint256"
        }
      ],
      "name": "Approval",
      "type": "event"
    },
    {
      "anonymous": false,
      "inputs": [
        {
          "indexed": true,
          "internalType": "address",
          "name": "owner",
          "type": "address"
        },
        {
          "indexed": true,
          "internalType": "address",
          "name": "operator",
          "type": "address"
        },
        {
          "indexed": false,
          "internalType": "bool",
          "name": "approved",
          "type": "bool"
        }
      ],
      "name": "ApprovalForAll",
      "type": "event"
    },
    {
      "anonymous": false,
      "inputs": [
        {
          "indexed": false,
          "internalType": "uint256",
          "name": "_fromTokenId",
          "type": "uint256"
        },
        {
          "indexed": false,
          "internalType": "uint256",
          "name": "_toTokenId",
          "type": "uint256"
        }
      ],
      "name": "BatchMetadataUpdate",
      "type": "event"
    },
    {
      "anonymous": false,
      "inputs": [
        {
          "indexed": false,
          "internalType": "uint256",
          "name": "_tokenId",
          "type": "uint256"
        }
      ],
      "name": "MetadataUpdate",
      "type": "event"
    },
    {
      "anonymous": false,
      "inputs": [
        {
          "indexed": true,
          "internalType": "address",
          "name": "from",
          "type": "address"
        },
        {
          "indexed": true,
          "internalType": "address",
          "name": "to",
          "type": "address"
        },
        {
          "indexed": true,
          "internalType": "uint256",
          "name": "tokenId",
          "type": "uint256"
        }
      ],
      "name": "Transfer",
      "type": "event"
    },
    {
      "anonymous": false,
      "inputs": [
        {
          "indexed": true,
          "internalType": "uint256",
          "name": "tokenId",
          "type": "uint256"
        },
        {
          "indexed": true,
          "internalType": "address",
          "name": "user",
          "type": "address"
        },
        {
          "indexed": false,
          "internalType": "uint64",
          "name": "expires",
          "type": "uint64"
        }
      ],
      "name": "UpdateUser",
      "type": "event"
    },
    {
      "inputs": [
        {
          "internalType": "address",
          "name": "to",
          "type": "address"
        },
        {
          "internalType": "uint256",
          "name": "tokenId",
          "type": "uint256"
        }
      ],
      "name": "approve",
      "outputs": [],
      "stateMutability": "nonpayable",
      "type": "function"
    },
    {
      "inputs": [
        {
          "internalType": "address",
          "name": "owner",
          "type": "address"
        }
      ],
      "name": "balanceOf",
      "outputs": [
        {
          "internalType": "uint256",
          "name": "",
          "type": "uint256"
        }
      ],
      "stateMutability": "view",
      "type": "function"
    },
    {
      "inputs": [
        {
          "internalType": "uint256",
          "name": "tokenId",
          "type": "uint256"
        }
      ],
      "name": "burn",
      "outputs": [],
      "stateMutability": "nonpayable",
      "type": "function"
    },
    {
      "inputs": [
        {
          "internalType": "uint256",
          "name": "tokenId",
          "type": "uint256"
        }
      ],
      "name": "getApproved",
      "outputs": [
        {
          "internalType": "address",
          "name": "",
          "type": "address"
        }
      ],
      "stateMutability": "view",
      "type": "function"
    },
    {
      "inputs": [
        {
          "internalType": "address",
          "name": "owner",
          "type": "address"
        },
        {
          "internalType": "address",
          "name": "operator",
          "type": "address"
        }
      ],
      "name": "isApprovedForAll",
      "outputs": [
        {
          "internalType": "bool",
          "name": "",
          "type": "bool"
        }
      ],
      "stateMutability": "view",
      "type": "function"
    },
    {
      "inputs": [
        {
          "internalType": "string",
          "name": "_tokenURI",
          "type": "string"
        },
        {
          "internalType": "string[]",
          "name": "_metadata",
          "type": "string[]"
        }
      ],
      "name": "mint",
      "outputs": [],
      "stateMutability": "nonpayable",
      "type": "function"
    },
    {
      "inputs": [],
      "name": "name",
      "outputs": [
        {
          "internalType": "string",
          "name": "",
          "type": "string"
        }
      ],
      "stateMutability": "view",
      "type": "function"
    },
    {
      "inputs": [
        {
          "internalType": "uint256",
          "name": "tokenId",
          "type": "uint256"
        }
      ],
      "name": "ownerOf",
      "outputs": [
        {
          "internalType": "address",
          "name": "",
          "type": "address"
        }
      ],
      "stateMutability": "view",
      "type": "function"
    },
    {
      "inputs": [
        {
          "internalType": "address",
          "name": "from",
          "type": "address"
        },
        {
          "internalType": "address",
          "name": "to",
          "type": "address"
        },
        {
          "internalType": "uint256",
          "name": "tokenId",
          "type": "uint256"
        }
      ],
      "name": "safeTransferFrom",
      "outputs": [],
      "stateMutability": "nonpayable",
      "type": "function"
    },
    {
      "inputs": [
        {
          "internalType": "address",
          "name": "from",
          "type": "address"
        },
        {
          "internalType": "address",
          "name": "to",
          "type": "address"
        },
        {
          "internalType": "uint256",
          "name": "tokenId",
          "type": "uint256"
        },
        {
          "internalType": "bytes",
          "name": "data",
          "type": "bytes"
        }
      ],
      "name": "safeTransferFrom",
      "outputs": [],
      "stateMutability": "nonpayable",
      "type": "function"
    },
    {
      "inputs": [
        {
          "internalType": "address",
          "name": "operator",
          "type": "address"
        },
        {
          "internalType": "bool",
          "name": "approved",
          "type": "bool"
        }
      ],
      "name": "setApprovalForAll",
      "outputs": [],
      "stateMutability": "nonpayable",
      "type": "function"
    },
    {
      "inputs": [
        {
          "internalType": "uint256",
          "name": "tokenId",
          "type": "uint256"
        },
        {
          "internalType": "address",
          "name": "user",
          "type": "address"
        },
        {
          "internalType": "uint64",
          "name": "expires",
          "type": "uint64"
        }
      ],
      "name": "setUser",
      "outputs": [],
      "stateMutability": "nonpayable",
      "type": "function"
    },
    {
      "inputs": [
        {
          "internalType": "bytes4",
          "name": "interfaceId",
          "type": "bytes4"
        }
      ],
      "name": "supportsInterface",
      "outputs": [
        {
          "internalType": "bool",
          "name": "",
          "type": "bool"
        }
      ],
      "stateMutability": "view",
      "type": "function"
    },
    {
      "inputs": [],
      "name": "symbol",
      "outputs": [
        {
          "internalType": "string",
          "name": "",
          "type": "string"
        }
      ],
      "stateMutability": "view",
      "type": "function"
    },
    {
      "inputs": [
        {
          "internalType": "uint256",
          "name": "tokenId",
          "type": "uint256"
        }
      ],
      "name": "tokenURI",
      "outputs": [
        {
          "internalType": "string",
          "name": "",
          "type": "string"
        }
      ],
      "stateMutability": "view",
      "type": "function"
    },
    {
      "inputs": [
        {
          "internalType": "address",
          "name": "from",
          "type": "address"
        },
        {
          "internalType": "address",
          "name": "to",
          "type": "address"
        },
        {
          "internalType": "uint256",
          "name": "tokenId",
          "type": "uint256"
        }
      ],
      "name": "transferFrom",
      "outputs": [],
      "stateMutability": "nonpayable",
      "type": "function"
    },
    {
      "inputs": [
        {
          "internalType": "uint256",
          "name": "tokenId",
          "type": "uint256"
        }
      ],
      "name": "userExpires",
      "outputs": [
        {
          "internalType": "uint256",
          "name": "",
          "type": "uint256"
        }
      ],
      "stateMutability": "view",
      "type": "function"
    },
    {
      "inputs": [
        {
          "internalType": "uint256",
          "name": "tokenId",
          "type": "uint256"
        }
      ],
      "name": "userOf",
      "outputs": [
        {
          "internalType": "address",
          "name": "",
          "type": "address"
        }
      ],
      "stateMutability": "view",
      "type": "function"
    }
  ],
  "bytecode": "0x60806040523480156200001157600080fd5b506040518060400160405280600481526020017f426f6f6b000000000000000000000000000000000000000000000000000000008152506040518060400160405280600281526020017f424b0000000000000000000000000000000000000000000000000000000000008152508181816000908162000091919062000328565b508060019081620000a3919062000328565b50505050506200040f565b600081519050919050565b7f4e487b7100000000000000000000000000000000000000000000000000000000600052604160045260246000fd5b7f4e487b7100000000000000000000000000000000000000000000000000000000600052602260045260246000fd5b600060028204905060018216806200013057607f821691505b602082108103620001465762000145620000e8565b5b50919050565b60008190508160005260206000209050919050565b60006020601f8301049050919050565b600082821b905092915050565b600060088302620001b07fffffffffffffffffffffffffffffffffffffffffffffffffffffffffffffffff8262000171565b620001bc868362000171565b95508019841693508086168417925050509392505050565b6000819050919050565b6000819050919050565b60006200020962000203620001fd84620001d4565b620001de565b620001d4565b9050919050565b6000819050919050565b6200022583620001e8565b6200023d620002348262000210565b8484546200017e565b825550505050565b600090565b6200025462000245565b620002618184846200021a565b505050565b5b8181101562000289576200027d6000826200024a565b60018101905062000267565b5050565b601f821115620002d857620002a2816200014c565b620002ad8462000161565b81016020851015620002bd578190505b620002d5620002cc8562000161565b83018262000266565b50505b505050565b600082821c905092915050565b6000620002fd60001984600802620002dd565b1980831691505092915050565b6000620003188383620002ea565b9150826002028217905092915050565b6200033382620000ae565b67ffffffffffffffff8111156200034f576200034e620000b9565b5b6200035b825462000117565b620003688282856200028d565b600060209050601f831160018114620003a057600084156200038b578287015190505b6200039785826200030a565b86555062000407565b601f198416620003b0866200014c565b60005b82811015620003da57848901518255600182019150602085019450602081019050620003b3565b86831015620003fa5784890151620003f6601f891682620002ea565b8355505b6001600288020188555050505b505050505050565b6135a5806200041f6000396000f3fe608060405234801561001057600080fd5b50600436106101165760003560e01c80638bf24162116100a2578063b88d4fde11610071578063b88d4fde146102ef578063c2f1f14a1461030b578063c87b56dd1461033b578063e030565e1461036b578063e985e9c51461038757610116565b80638bf24162146102695780638fc88c481461028557806395d89b41146102b5578063a22cb465146102d357610116565b806323b872dd116100e957806323b872dd146101b557806342842e0e146101d157806342966c68146101ed5780636352211e1461020957806370a082311461023957610116565b806301ffc9a71461011b57806306fdde031461014b578063081812fc14610169578063095ea7b314610199575b600080fd5b610135600480360381019061013091906121ed565b6103b7565b6040516101429190612235565b60405180910390f35b610153610431565b60405161016091906122e0565b60405180910390f35b610183600480360381019061017e9190612338565b6104c3565b60405161019091906123a6565b60405180910390f35b6101b360048036038101906101ae91906123ed565b610509565b005b6101cf60048036038101906101ca919061242d565b610620565b005b6101eb60048036038101906101e6919061242d565b610680565b005b61020760048036038101906102029190612338565b6106a0565b005b610223600480360381019061021e9190612338565b6106ac565b60405161023091906123a6565b60405180910390f35b610253600480360381019061024e9190612480565b610732565b60405161026091906124bc565b60405180910390f35b610283600480360381019061027e91906126f2565b6107e9565b005b61029f600480360381019061029a9190612338565b610824565b6040516102ac91906124bc565b60405180910390f35b6102bd610862565b6040516102ca91906122e0565b60405180910390f35b6102ed60048036038101906102e89190612796565b6108f4565b005b61030960048036038101906103049190612877565b61090a565b005b61032560048036038101906103209190612338565b61096c565b60405161033291906123a6565b60405180910390f35b61035560048036038101906103509190612338565b6109f1565b60405161036291906122e0565b60405180910390f35b6103856004803603810190610380919061293a565b610b03565b005b6103a1600480360381019061039c919061298d565b610c26565b6040516103ae9190612235565b60405180910390f35b60007fad092b5c000000000000000000000000000000000000000000000000000000007bffffffffffffffffffffffffffffffffffffffffffffffffffffffff1916827bffffffffffffffffffffffffffffffffffffffffffffffffffffffff1916148061042a575061042982610cba565b5b9050919050565b606060008054610440906129fc565b80601f016020809104026020016040519081016040528092919081815260200182805461046c906129fc565b80156104b95780601f1061048e576101008083540402835291602001916104b9565b820191906000526020600020905b81548152906001019060200180831161049c57829003601f168201915b5050505050905090565b60006104ce82610d1b565b6004600083815260200190815260200160002060009054906101000a900473ffffffffffffffffffffffffffffffffffffffff169050919050565b6000610514826106ac565b90508073ffffffffffffffffffffffffffffffffffffffff168373ffffffffffffffffffffffffffffffffffffffff1603610584576040517f08c379a000000000000000000000000000000000000000000000000000000000815260040161057b90612a9f565b60405180910390fd5b8073ffffffffffffffffffffffffffffffffffffffff166105a3610d66565b73ffffffffffffffffffffffffffffffffffffffff1614806105d257506105d1816105cc610d66565b610c26565b5b610611576040517f08c379a000000000000000000000000000000000000000000000000000000000815260040161060890612b31565b60405180910390fd5b61061b8383610d6e565b505050565b61063161062b610d66565b82610e27565b610670576040517f08c379a000000000000000000000000000000000000000000000000000000000815260040161066790612bc3565b60405180910390fd5b61067b838383610ebc565b505050565b61069b8383836040518060200160405280600081525061090a565b505050565b6106a9816111b5565b50565b6000806106b883611208565b9050600073ffffffffffffffffffffffffffffffffffffffff168173ffffffffffffffffffffffffffffffffffffffff1603610729576040517f08c379a000000000000000000000000000000000000000000000000000000000815260040161072090612c2f565b60405180910390fd5b80915050919050565b60008073ffffffffffffffffffffffffffffffffffffffff168273ffffffffffffffffffffffffffffffffffffffff16036107a2576040517f08c379a000000000000000000000000000000000000000000000000000000000815260040161079990612cc1565b60405180910390fd5b600360008373ffffffffffffffffffffffffffffffffffffffff1673ffffffffffffffffffffffffffffffffffffffff168152602001908152602001600020549050919050565b6107f36009611245565b60006107ff600961125b565b905061080b3382611269565b6108158184611287565b61081f818361132b565b505050565b60006008600083815260200190815260200160002060000160149054906101000a900467ffffffffffffffff1667ffffffffffffffff169050919050565b606060018054610871906129fc565b80601f016020809104026020016040519081016040528092919081815260200182805461089d906129fc565b80156108ea5780601f106108bf576101008083540402835291602001916108ea565b820191906000526020600020905b8154815290600101906020018083116108cd57829003601f168201915b5050505050905090565b6109066108ff610d66565b83836113d6565b5050565b61091b610915610d66565b83610e27565b61095a576040517f08c379a000000000000000000000000000000000000000000000000000000000815260040161095190612bc3565b60405180910390fd5b61096684848484611542565b50505050565b6000426008600084815260200190815260200160002060000160149054906101000a900467ffffffffffffffff1667ffffffffffffffff16106109e7576008600083815260200190815260200160002060000160009054906101000a900473ffffffffffffffffffffffffffffffffffffffff1690506109ec565b600090505b919050565b60606109fc82610d1b565b6000600660008481526020019081526020016000208054610a1c906129fc565b80601f0160208091040260200160405190810160405280929190818152602001828054610a48906129fc565b8015610a955780601f10610a6a57610100808354040283529160200191610a95565b820191906000526020600020905b815481529060010190602001808311610a7857829003601f168201915b505050505090506000610aa661159e565b90506000815103610abb578192505050610afe565b600082511115610af0578082604051602001610ad8929190612d1d565b60405160208183030381529060405292505050610afe565b610af9846115b5565b925050505b919050565b610b0d3384610e27565b610b4c576040517f08c379a0000000000000000000000000000000000000000000000000000000008152600401610b4390612db3565b60405180910390fd5b6000600860008581526020019081526020016000209050828160000160006101000a81548173ffffffffffffffffffffffffffffffffffffffff021916908373ffffffffffffffffffffffffffffffffffffffff160217905550818160000160146101000a81548167ffffffffffffffff021916908367ffffffffffffffff1602179055508273ffffffffffffffffffffffffffffffffffffffff16847f4e06b4e7000e659094299b3533b47b6aa8ad048e95e872d23d1f4ee55af89cfe84604051610c189190612de2565b60405180910390a350505050565b6000600560008473ffffffffffffffffffffffffffffffffffffffff1673ffffffffffffffffffffffffffffffffffffffff16815260200190815260200160002060008373ffffffffffffffffffffffffffffffffffffffff1673ffffffffffffffffffffffffffffffffffffffff16815260200190815260200160002060009054906101000a900460ff16905092915050565b6000634906490660e01b7bffffffffffffffffffffffffffffffffffffffffffffffffffffffff1916827bffffffffffffffffffffffffffffffffffffffffffffffffffffffff19161480610d145750610d138261161d565b5b9050919050565b610d24816116ff565b610d63576040517f08c379a0000000000000000000000000000000000000000000000000000000008152600401610d5a90612c2f565b60405180910390fd5b50565b600033905090565b816004600083815260200190815260200160002060006101000a81548173ffffffffffffffffffffffffffffffffffffffff021916908373ffffffffffffffffffffffffffffffffffffffff160217905550808273ffffffffffffffffffffffffffffffffffffffff16610de1836106ac565b73ffffffffffffffffffffffffffffffffffffffff167f8c5be1e5ebec7d5bd14f71427d1e84f3dd0314c0f7b2291e5b200ac8c7c3b92560405160405180910390a45050565b600080610e33836106ac565b90508073ffffffffffffffffffffffffffffffffffffffff168473ffffffffffffffffffffffffffffffffffffffff161480610e755750610e748185610c26565b5b80610eb357508373ffffffffffffffffffffffffffffffffffffffff16610e9b846104c3565b73ffffffffffffffffffffffffffffffffffffffff16145b91505092915050565b8273ffffffffffffffffffffffffffffffffffffffff16610edc826106ac565b73ffffffffffffffffffffffffffffffffffffffff1614610f32576040517f08c379a0000000000000000000000000000000000000000000000000000000008152600401610f2990612e6f565b60405180910390fd5b600073ffffffffffffffffffffffffffffffffffffffff168273ffffffffffffffffffffffffffffffffffffffff1603610fa1576040517f08c379a0000000000000000000000000000000000000000000000000000000008152600401610f9890612f01565b60405180910390fd5b610fae8383836001611740565b8273ffffffffffffffffffffffffffffffffffffffff16610fce826106ac565b73ffffffffffffffffffffffffffffffffffffffff1614611024576040517f08c379a000000000000000000000000000000000000000000000000000000000815260040161101b90612e6f565b60405180910390fd5b6004600082815260200190815260200160002060006101000a81549073ffffffffffffffffffffffffffffffffffffffff02191690556001600360008573ffffffffffffffffffffffffffffffffffffffff1673ffffffffffffffffffffffffffffffffffffffff168152602001908152602001600020600082825403925050819055506001600360008473ffffffffffffffffffffffffffffffffffffffff1673ffffffffffffffffffffffffffffffffffffffff16815260200190815260200160002060008282540192505081905550816002600083815260200190815260200160002060006101000a81548173ffffffffffffffffffffffffffffffffffffffff021916908373ffffffffffffffffffffffffffffffffffffffff160217905550808273ffffffffffffffffffffffffffffffffffffffff168473ffffffffffffffffffffffffffffffffffffffff167fddf252ad1be2c89b69c2b068fc378daa952ba7f163c4a11628f55a4df523b3ef60405160405180910390a46111b083838360016118a0565b505050565b6111be816118a6565b60006006600083815260200190815260200160002080546111de906129fc565b9050146112055760066000828152602001908152602001600020600061120491906120a7565b5b50565b60006002600083815260200190815260200160002060009054906101000a900473ffffffffffffffffffffffffffffffffffffffff169050919050565b6001816000016000828254019250508190555050565b600081600001549050919050565b6112838282604051806020016040528060008152506119f4565b5050565b611290826116ff565b6112cf576040517f08c379a00000000000000000000000000000000000000000000000000000000081526004016112c690612f93565b60405180910390fd5b806006600084815260200190815260200160002090816112ef919061315f565b507ff8e1a15aba9398e019f0b49df1a4fde98ee17ae345cb5f6b5e2c27f5033e8ce78260405161131f91906124bc565b60405180910390a15050565b611334826116ff565b611373576040517f08c379a000000000000000000000000000000000000000000000000000000000815260040161136a90612f93565b60405180910390fd5b8060076000848152602001908152602001600020908051906020019061139a9291906120e7565b507ff8e1a15aba9398e019f0b49df1a4fde98ee17ae345cb5f6b5e2c27f5033e8ce7826040516113ca91906124bc565b60405180910390a15050565b8173ffffffffffffffffffffffffffffffffffffffff168373ffffffffffffffffffffffffffffffffffffffff1603611444576040517f08c379a000000000000000000000000000000000000000000000000000000000815260040161143b9061327d565b60405180910390fd5b80600560008573ffffffffffffffffffffffffffffffffffffffff1673ffffffffffffffffffffffffffffffffffffffff16815260200190815260200160002060008473ffffffffffffffffffffffffffffffffffffffff1673ffffffffffffffffffffffffffffffffffffffff16815260200190815260200160002060006101000a81548160ff0219169083151502179055508173ffffffffffffffffffffffffffffffffffffffff168373ffffffffffffffffffffffffffffffffffffffff167f17307eab39ab6107e8899845ad3d59bd9653f200f220920489ca2b5937696c31836040516115359190612235565b60405180910390a3505050565b61154d848484610ebc565b61155984848484611a4f565b611598576040517f08c379a000000000000000000000000000000000000000000000000000000000815260040161158f9061330f565b60405180910390fd5b50505050565b606060405180602001604052806000815250905090565b60606115c082610d1b565b60006115ca61159e565b905060008151116115ea5760405180602001604052806000815250611615565b806115f484611bd6565b604051602001611605929190612d1d565b6040516020818303038152906040525b915050919050565b60007f80ac58cd000000000000000000000000000000000000000000000000000000007bffffffffffffffffffffffffffffffffffffffffffffffffffffffff1916827bffffffffffffffffffffffffffffffffffffffffffffffffffffffff191614806116e857507f5b5e139f000000000000000000000000000000000000000000000000000000007bffffffffffffffffffffffffffffffffffffffffffffffffffffffff1916827bffffffffffffffffffffffffffffffffffffffffffffffffffffffff1916145b806116f857506116f782611ca4565b5b9050919050565b60008073ffffffffffffffffffffffffffffffffffffffff1661172183611208565b73ffffffffffffffffffffffffffffffffffffffff1614159050919050565b61174c84848484611d0e565b8273ffffffffffffffffffffffffffffffffffffffff168473ffffffffffffffffffffffffffffffffffffffff16141580156117eb5750600073ffffffffffffffffffffffffffffffffffffffff166008600084815260200190815260200160002060000160009054906101000a900473ffffffffffffffffffffffffffffffffffffffff1673ffffffffffffffffffffffffffffffffffffffff1614155b1561189a5760086000838152602001908152602001600020600080820160006101000a81549073ffffffffffffffffffffffffffffffffffffffff02191690556000820160146101000a81549067ffffffffffffffff02191690555050600073ffffffffffffffffffffffffffffffffffffffff16827f4e06b4e7000e659094299b3533b47b6aa8ad048e95e872d23d1f4ee55af89cfe6000604051611891919061336a565b60405180910390a35b50505050565b50505050565b60006118b1826106ac565b90506118c1816000846001611740565b6118ca826106ac565b90506004600083815260200190815260200160002060006101000a81549073ffffffffffffffffffffffffffffffffffffffff02191690556001600360008373ffffffffffffffffffffffffffffffffffffffff1673ffffffffffffffffffffffffffffffffffffffff168152602001908152602001600020600082825403925050819055506002600083815260200190815260200160002060006101000a81549073ffffffffffffffffffffffffffffffffffffffff021916905581600073ffffffffffffffffffffffffffffffffffffffff168273ffffffffffffffffffffffffffffffffffffffff167fddf252ad1be2c89b69c2b068fc378daa952ba7f163c4a11628f55a4df523b3ef60405160405180910390a46119f08160008460016118a0565b5050565b6119fe8383611d14565b611a0b6000848484611a4f565b611a4a576040517f08c379a0000000000000000000000000000000000000000000000000000000008152600401611a419061330f565b60405180910390fd5b505050565b6000611a708473ffffffffffffffffffffffffffffffffffffffff16611f31565b15611bc9578373ffffffffffffffffffffffffffffffffffffffff1663150b7a02611a99610d66565b8786866040518563ffffffff1660e01b8152600401611abb94939291906133da565b6020604051808303816000875af1925050508015611af757506040513d601f19601f82011682018060405250810190611af4919061343b565b60015b611b79573d8060008114611b27576040519150601f19603f3d011682016040523d82523d6000602084013e611b2c565b606091505b506000815103611b71576040517f08c379a0000000000000000000000000000000000000000000000000000000008152600401611b689061330f565b60405180910390fd5b805181602001fd5b63150b7a0260e01b7bffffffffffffffffffffffffffffffffffffffffffffffffffffffff1916817bffffffffffffffffffffffffffffffffffffffffffffffffffffffff191614915050611bce565b600190505b949350505050565b606060006001611be584611f54565b01905060008167ffffffffffffffff811115611c0457611c036124e1565b5b6040519080825280601f01601f191660200182016040528015611c365781602001600182028036833780820191505090505b509050600082602001820190505b600115611c99578080600190039150507f3031323334353637383961626364656600000000000000000000000000000000600a86061a8153600a8581611c8d57611c8c613468565b5b04945060008503611c44575b819350505050919050565b60007f01ffc9a7000000000000000000000000000000000000000000000000000000007bffffffffffffffffffffffffffffffffffffffffffffffffffffffff1916827bffffffffffffffffffffffffffffffffffffffffffffffffffffffff1916149050919050565b50505050565b600073ffffffffffffffffffffffffffffffffffffffff168273ffffffffffffffffffffffffffffffffffffffff1603611d83576040517f08c379a0000000000000000000000000000000000000000000000000000000008152600401611d7a906134e3565b60405180910390fd5b611d8c816116ff565b15611dcc576040517f08c379a0000000000000000000000000000000000000000000000000000000008152600401611dc39061354f565b60405180910390fd5b611dda600083836001611740565b611de3816116ff565b15611e23576040517f08c379a0000000000000000000000000000000000000000000000000000000008152600401611e1a9061354f565b60405180910390fd5b6001600360008473ffffffffffffffffffffffffffffffffffffffff1673ffffffffffffffffffffffffffffffffffffffff16815260200190815260200160002060008282540192505081905550816002600083815260200190815260200160002060006101000a81548173ffffffffffffffffffffffffffffffffffffffff021916908373ffffffffffffffffffffffffffffffffffffffff160217905550808273ffffffffffffffffffffffffffffffffffffffff16600073ffffffffffffffffffffffffffffffffffffffff167fddf252ad1be2c89b69c2b068fc378daa952ba7f163c4a11628f55a4df523b3ef60405160405180910390a4611f2d6000838360016118a0565b5050565b6000808273ffffffffffffffffffffffffffffffffffffffff163b119050919050565b600080600090507a184f03e93ff9f4daa797ed6e38ed64bf6a1f0100000000000000008310611fb2577a184f03e93ff9f4daa797ed6e38ed64bf6a1f0100000000000000008381611fa857611fa7613468565b5b0492506040810190505b6d04ee2d6d415b85acef81000000008310611fef576d04ee2d6d415b85acef81000000008381611fe557611fe4613468565b5b0492506020810190505b662386f26fc10000831061201e57662386f26fc10000838161201457612013613468565b5b0492506010810190505b6305f5e1008310612047576305f5e100838161203d5761203c613468565b5b0492506008810190505b612710831061206c57612710838161206257612061613468565b5b0492506004810190505b6064831061208f576064838161208557612084613468565b5b0492506002810190505b600a831061209e576001810190505b80915050919050565b5080546120b3906129fc565b6000825580601f106120c557506120e4565b601f0160209004906000526020600020908101906120e39190612140565b5b50565b82805482825590600052602060002090810192821561212f579160200282015b8281111561212e57825182908161211e919061315f565b5091602001919060010190612107565b5b50905061213c919061215d565b5090565b5b80821115612159576000816000905550600101612141565b5090565b5b8082111561217d576000818161217491906120a7565b5060010161215e565b5090565b6000604051905090565b600080fd5b600080fd5b60007fffffffff0000000000000000000000000000000000000000000000000000000082169050919050565b6121ca81612195565b81146121d557600080fd5b50565b6000813590506121e7816121c1565b92915050565b6000602082840312156122035761220261218b565b5b6000612211848285016121d8565b91505092915050565b60008115159050919050565b61222f8161221a565b82525050565b600060208201905061224a6000830184612226565b92915050565b600081519050919050565b600082825260208201905092915050565b60005b8381101561228a57808201518184015260208101905061226f565b60008484015250505050565b6000601f19601f8301169050919050565b60006122b282612250565b6122bc818561225b565b93506122cc81856020860161226c565b6122d581612296565b840191505092915050565b600060208201905081810360008301526122fa81846122a7565b905092915050565b6000819050919050565b61231581612302565b811461232057600080fd5b50565b6000813590506123328161230c565b92915050565b60006020828403121561234e5761234d61218b565b5b600061235c84828501612323565b91505092915050565b600073ffffffffffffffffffffffffffffffffffffffff82169050919050565b600061239082612365565b9050919050565b6123a081612385565b82525050565b60006020820190506123bb6000830184612397565b92915050565b6123ca81612385565b81146123d557600080fd5b50565b6000813590506123e7816123c1565b92915050565b600080604083850312156124045761240361218b565b5b6000612412858286016123d8565b925050602061242385828601612323565b9150509250929050565b6000806000606084860312156124465761244561218b565b5b6000612454868287016123d8565b9350506020612465868287016123d8565b925050604061247686828701612323565b9150509250925092565b6000602082840312156124965761249561218b565b5b60006124a4848285016123d8565b91505092915050565b6124b681612302565b82525050565b60006020820190506124d160008301846124ad565b92915050565b600080fd5b600080fd5b7f4e487b7100000000000000000000000000000000000000000000000000000000600052604160045260246000fd5b61251982612296565b810181811067ffffffffffffffff82111715612538576125376124e1565b5b80604052505050565b600061254b612181565b90506125578282612510565b919050565b600067ffffffffffffffff821115612577576125766124e1565b5b61258082612296565b9050602081019050919050565b82818337600083830152505050565b60006125af6125aa8461255c565b612541565b9050828152602081018484840111156125cb576125ca6124dc565b5b6125d684828561258d565b509392505050565b600082601f8301126125f3576125f26124d7565b5b813561260384826020860161259c565b91505092915050565b600067ffffffffffffffff821115612627576126266124e1565b5b602082029050602081019050919050565b600080fd5b600061265061264b8461260c565b612541565b9050808382526020820190506020840283018581111561267357612672612638565b5b835b818110156126ba57803567ffffffffffffffff811115612698576126976124d7565b5b8086016126a589826125de565b85526020850194505050602081019050612675565b5050509392505050565b600082601f8301126126d9576126d86124d7565b5b81356126e984826020860161263d565b91505092915050565b600080604083850312156127095761270861218b565b5b600083013567ffffffffffffffff81111561272757612726612190565b5b612733858286016125de565b925050602083013567ffffffffffffffff81111561275457612753612190565b5b612760858286016126c4565b9150509250929050565b6127738161221a565b811461277e57600080fd5b50565b6000813590506127908161276a565b92915050565b600080604083850312156127ad576127ac61218b565b5b60006127bb858286016123d8565b92505060206127cc85828601612781565b9150509250929050565b600067ffffffffffffffff8211156127f1576127f06124e1565b5b6127fa82612296565b9050602081019050919050565b600061281a612815846127d6565b612541565b905082815260208101848484011115612836576128356124dc565b5b61284184828561258d565b509392505050565b600082601f83011261285e5761285d6124d7565b5b813561286e848260208601612807565b91505092915050565b600080600080608085870312156128915761289061218b565b5b600061289f878288016123d8565b94505060206128b0878288016123d8565b93505060406128c187828801612323565b925050606085013567ffffffffffffffff8111156128e2576128e1612190565b5b6128ee87828801612849565b91505092959194509250565b600067ffffffffffffffff82169050919050565b612917816128fa565b811461292257600080fd5b50565b6000813590506129348161290e565b92915050565b6000806000606084860312156129535761295261218b565b5b600061296186828701612323565b9350506020612972868287016123d8565b925050604061298386828701612925565b9150509250925092565b600080604083850312156129a4576129a361218b565b5b60006129b2858286016123d8565b92505060206129c3858286016123d8565b9150509250929050565b7f4e487b7100000000000000000000000000000000000000000000000000000000600052602260045260246000fd5b60006002820490506001821680612a1457607f821691505b602082108103612a2757612a266129cd565b5b50919050565b7f4552433732313a20617070726f76616c20746f2063757272656e74206f776e6560008201527f7200000000000000000000000000000000000000000000000000000000000000602082015250565b6000612a8960218361225b565b9150612a9482612a2d565b604082019050919050565b60006020820190508181036000830152612ab881612a7c565b9050919050565b7f4552433732313a20617070726f76652063616c6c6572206973206e6f7420746f60008201527f6b656e206f776e6572206f7220617070726f76656420666f7220616c6c000000602082015250565b6000612b1b603d8361225b565b9150612b2682612abf565b604082019050919050565b60006020820190508181036000830152612b4a81612b0e565b9050919050565b7f4552433732313a2063616c6c6572206973206e6f7420746f6b656e206f776e6560008201527f72206f7220617070726f76656400000000000000000000000000000000000000602082015250565b6000612bad602d8361225b565b9150612bb882612b51565b604082019050919050565b60006020820190508181036000830152612bdc81612ba0565b9050919050565b7f4552433732313a20696e76616c696420746f6b656e2049440000000000000000600082015250565b6000612c1960188361225b565b9150612c2482612be3565b602082019050919050565b60006020820190508181036000830152612c4881612c0c565b9050919050565b7f4552433732313a2061646472657373207a65726f206973206e6f74206120766160008201527f6c6964206f776e65720000000000000000000000000000000000000000000000602082015250565b6000612cab60298361225b565b9150612cb682612c4f565b604082019050919050565b60006020820190508181036000830152612cda81612c9e565b9050919050565b600081905092915050565b6000612cf782612250565b612d018185612ce1565b9350612d1181856020860161226c565b80840191505092915050565b6000612d298285612cec565b9150612d358284612cec565b91508190509392505050565b7f4552433732313a207472616e736665722063616c6c6572206973206e6f74206f60008201527f776e6572206e6f7220617070726f766564000000000000000000000000000000602082015250565b6000612d9d60318361225b565b9150612da882612d41565b604082019050919050565b60006020820190508181036000830152612dcc81612d90565b9050919050565b612ddc816128fa565b82525050565b6000602082019050612df76000830184612dd3565b92915050565b7f4552433732313a207472616e736665722066726f6d20696e636f72726563742060008201527f6f776e6572000000000000000000000000000000000000000000000000000000602082015250565b6000612e5960258361225b565b9150612e6482612dfd565b604082019050919050565b60006020820190508181036000830152612e8881612e4c565b9050919050565b7f4552433732313a207472616e7366657220746f20746865207a65726f2061646460008201527f7265737300000000000000000000000000000000000000000000000000000000602082015250565b6000612eeb60248361225b565b9150612ef682612e8f565b604082019050919050565b60006020820190508181036000830152612f1a81612ede565b9050919050565b7f45524337323155524953746f726167653a2055524920736574206f66206e6f6e60008201527f6578697374656e7420746f6b656e000000000000000000000000000000000000602082015250565b6000612f7d602e8361225b565b9150612f8882612f21565b604082019050919050565b60006020820190508181036000830152612fac81612f70565b9050919050565b60008190508160005260206000209050919050565b60006020601f8301049050919050565b600082821b905092915050565b6000600883026130157fffffffffffffffffffffffffffffffffffffffffffffffffffffffffffffffff82612fd8565b61301f8683612fd8565b95508019841693508086168417925050509392505050565b6000819050919050565b600061305c61305761305284612302565b613037565b612302565b9050919050565b6000819050919050565b61307683613041565b61308a61308282613063565b848454612fe5565b825550505050565b600090565b61309f613092565b6130aa81848461306d565b505050565b5b818110156130ce576130c3600082613097565b6001810190506130b0565b5050565b601f821115613113576130e481612fb3565b6130ed84612fc8565b810160208510156130fc578190505b61311061310885612fc8565b8301826130af565b50505b505050565b600082821c905092915050565b600061313660001984600802613118565b1980831691505092915050565b600061314f8383613125565b9150826002028217905092915050565b61316882612250565b67ffffffffffffffff811115613181576131806124e1565b5b61318b82546129fc565b6131968282856130d2565b600060209050601f8311600181146131c957600084156131b7578287015190505b6131c18582613143565b865550613229565b601f1984166131d786612fb3565b60005b828110156131ff578489015182556001820191506020850194506020810190506131da565b8683101561321c5784890151613218601f891682613125565b8355505b6001600288020188555050505b505050505050565b7f4552433732313a20617070726f766520746f2063616c6c657200000000000000600082015250565b600061326760198361225b565b915061327282613231565b602082019050919050565b600060208201905081810360008301526132968161325a565b9050919050565b7f4552433732313a207472616e7366657220746f206e6f6e20455243373231526560008201527f63656976657220696d706c656d656e7465720000000000000000000000000000602082015250565b60006132f960328361225b565b91506133048261329d565b604082019050919050565b60006020820190508181036000830152613328816132ec565b9050919050565b6000819050919050565b600061335461334f61334a8461332f565b613037565b6128fa565b9050919050565b61336481613339565b82525050565b600060208201905061337f600083018461335b565b92915050565b600081519050919050565b600082825260208201905092915050565b60006133ac82613385565b6133b68185613390565b93506133c681856020860161226c565b6133cf81612296565b840191505092915050565b60006080820190506133ef6000830187612397565b6133fc6020830186612397565b61340960408301856124ad565b818103606083015261341b81846133a1565b905095945050505050565b600081519050613435816121c1565b92915050565b6000602082840312156134515761345061218b565b5b600061345f84828501613426565b91505092915050565b7f4e487b7100000000000000000000000000000000000000000000000000000000600052601260045260246000fd5b7f4552433732313a206d696e7420746f20746865207a65726f2061646472657373600082015250565b60006134cd60208361225b565b91506134d882613497565b602082019050919050565b600060208201905081810360008301526134fc816134c0565b9050919050565b7f4552433732313a20746f6b656e20616c7265616479206d696e74656400000000600082015250565b6000613539601c8361225b565b915061354482613503565b602082019050919050565b600060208201905081810360008301526135688161352c565b905091905056fea2646970667358221220a2e63bbf5a0f282ceecff7fbdba30d8cb3ccac00b2065345640310688e857b6d64736f6c63430008130033",
  "linkReferences": {},
  "deployedLinkReferences": {}
}