{
  "_format": "hh-sol-artifact-1",
  "contractName": "Book",
  "sourceName": "contracts/Book.sol",
  "abi": [
    {
      "inputs": [],
      "stateMutability": "nonpayable",
      "type": "constructor"
    },
    {
      "anonymous": false,
      "inputs": [
        {
          "indexed": true,
          "internalType": "address",
          "name": "owner",
          "type": "address"
        },
        {
          "indexed": true,
          "internalType": "address",
          "name": "approved",
          "type": "address"
        },
        {
          "indexed": true,
          "internalType": "uint256",
          "name": "tokenId",
          "type": "uint256"
        }
      ],
      "name": "Approval",
      "type": "event"
    },
    {
      "anonymous": false,
      "inputs": [
        {
          "indexed": true,
          "internalType": "address",
          "name": "owner",
          "type": "address"
        },
        {
          "indexed": true,
          "internalType": "address",
          "name": "operator",
          "type": "address"
        },
        {
          "indexed": false,
          "internalType": "bool",
          "name": "approved",
          "type": "bool"
        }
      ],
      "name": "ApprovalForAll",
      "type": "event"
    },
    {
      "anonymous": false,
      "inputs": [
        {
          "indexed": false,
          "internalType": "uint256",
          "name": "_fromTokenId",
          "type": "uint256"
        },
        {
          "indexed": false,
          "internalType": "uint256",
          "name": "_toTokenId",
          "type": "uint256"
        }
      ],
      "name": "BatchMetadataUpdate",
      "type": "event"
    },
    {
      "anonymous": false,
      "inputs": [
        {
          "indexed": false,
          "internalType": "uint256",
          "name": "_tokenId",
          "type": "uint256"
        }
      ],
      "name": "MetadataUpdate",
      "type": "event"
    },
    {
      "anonymous": false,
      "inputs": [
        {
          "indexed": true,
          "internalType": "address",
          "name": "from",
          "type": "address"
        },
        {
          "indexed": true,
          "internalType": "address",
          "name": "to",
          "type": "address"
        },
        {
          "indexed": true,
          "internalType": "uint256",
          "name": "tokenId",
          "type": "uint256"
        }
      ],
      "name": "Transfer",
      "type": "event"
    },
    {
      "anonymous": false,
      "inputs": [
        {
          "indexed": true,
          "internalType": "uint256",
          "name": "tokenId",
          "type": "uint256"
        },
        {
          "indexed": true,
          "internalType": "address",
          "name": "user",
          "type": "address"
        },
        {
          "indexed": false,
          "internalType": "uint64",
          "name": "expires",
          "type": "uint64"
        }
      ],
      "name": "UpdateUser",
      "type": "event"
    },
    {
      "inputs": [
        {
          "internalType": "address",
          "name": "to",
          "type": "address"
        },
        {
          "internalType": "uint256",
          "name": "tokenId",
          "type": "uint256"
        }
      ],
      "name": "approve",
      "outputs": [],
      "stateMutability": "nonpayable",
      "type": "function"
    },
    {
      "inputs": [
        {
          "internalType": "address",
          "name": "owner",
          "type": "address"
        }
      ],
      "name": "balanceOf",
      "outputs": [
        {
          "internalType": "uint256",
          "name": "",
          "type": "uint256"
        }
      ],
      "stateMutability": "view",
      "type": "function"
    },
    {
      "inputs": [
        {
          "internalType": "uint256",
          "name": "tokenId",
          "type": "uint256"
        }
      ],
      "name": "burn",
      "outputs": [],
      "stateMutability": "nonpayable",
      "type": "function"
    },
    {
      "inputs": [
        {
          "internalType": "uint256",
          "name": "tokenId",
          "type": "uint256"
        }
      ],
      "name": "getApproved",
      "outputs": [
        {
          "internalType": "address",
          "name": "",
          "type": "address"
        }
      ],
      "stateMutability": "view",
      "type": "function"
    },
    {
      "inputs": [
        {
          "internalType": "address",
          "name": "owner",
          "type": "address"
        },
        {
          "internalType": "address",
          "name": "operator",
          "type": "address"
        }
      ],
      "name": "isApprovedForAll",
      "outputs": [
        {
          "internalType": "bool",
          "name": "",
          "type": "bool"
        }
      ],
      "stateMutability": "view",
      "type": "function"
    },
    {
      "inputs": [
        {
          "internalType": "string",
          "name": "_tokenURI",
          "type": "string"
        },
        {
          "internalType": "string[]",
          "name": "_metadata",
          "type": "string[]"
        },
        {
          "internalType": "uint64",
          "name": "expires",
          "type": "uint64"
        }
      ],
      "name": "mint",
      "outputs": [],
      "stateMutability": "nonpayable",
      "type": "function"
    },
    {
      "inputs": [],
      "name": "name",
      "outputs": [
        {
          "internalType": "string",
          "name": "",
          "type": "string"
        }
      ],
      "stateMutability": "view",
      "type": "function"
    },
    {
      "inputs": [
        {
          "internalType": "uint256",
          "name": "tokenId",
          "type": "uint256"
        }
      ],
      "name": "ownerOf",
      "outputs": [
        {
          "internalType": "address",
          "name": "",
          "type": "address"
        }
      ],
      "stateMutability": "view",
      "type": "function"
    },
    {
      "inputs": [
        {
          "internalType": "address",
          "name": "from",
          "type": "address"
        },
        {
          "internalType": "address",
          "name": "to",
          "type": "address"
        },
        {
          "internalType": "uint256",
          "name": "tokenId",
          "type": "uint256"
        }
      ],
      "name": "safeTransferFrom",
      "outputs": [],
      "stateMutability": "nonpayable",
      "type": "function"
    },
    {
      "inputs": [
        {
          "internalType": "address",
          "name": "from",
          "type": "address"
        },
        {
          "internalType": "address",
          "name": "to",
          "type": "address"
        },
        {
          "internalType": "uint256",
          "name": "tokenId",
          "type": "uint256"
        },
        {
          "internalType": "bytes",
          "name": "data",
          "type": "bytes"
        }
      ],
      "name": "safeTransferFrom",
      "outputs": [],
      "stateMutability": "nonpayable",
      "type": "function"
    },
    {
      "inputs": [
        {
          "internalType": "address",
          "name": "operator",
          "type": "address"
        },
        {
          "internalType": "bool",
          "name": "approved",
          "type": "bool"
        }
      ],
      "name": "setApprovalForAll",
      "outputs": [],
      "stateMutability": "nonpayable",
      "type": "function"
    },
    {
      "inputs": [
        {
          "internalType": "uint256",
          "name": "tokenId",
          "type": "uint256"
        },
        {
          "internalType": "address",
          "name": "user",
          "type": "address"
        },
        {
          "internalType": "uint64",
          "name": "expires",
          "type": "uint64"
        }
      ],
      "name": "setUser",
      "outputs": [],
      "stateMutability": "nonpayable",
      "type": "function"
    },
    {
      "inputs": [
        {
          "internalType": "bytes4",
          "name": "interfaceId",
          "type": "bytes4"
        }
      ],
      "name": "supportsInterface",
      "outputs": [
        {
          "internalType": "bool",
          "name": "",
          "type": "bool"
        }
      ],
      "stateMutability": "view",
      "type": "function"
    },
    {
      "inputs": [],
      "name": "symbol",
      "outputs": [
        {
          "internalType": "string",
          "name": "",
          "type": "string"
        }
      ],
      "stateMutability": "view",
      "type": "function"
    },
    {
      "inputs": [
        {
          "internalType": "uint256",
          "name": "tokenId",
          "type": "uint256"
        }
      ],
      "name": "tokenURI",
      "outputs": [
        {
          "internalType": "string",
          "name": "",
          "type": "string"
        }
      ],
      "stateMutability": "view",
      "type": "function"
    },
    {
      "inputs": [
        {
          "internalType": "address",
          "name": "from",
          "type": "address"
        },
        {
          "internalType": "address",
          "name": "to",
          "type": "address"
        },
        {
          "internalType": "uint256",
          "name": "tokenId",
          "type": "uint256"
        }
      ],
      "name": "transferFrom",
      "outputs": [],
      "stateMutability": "nonpayable",
      "type": "function"
    },
    {
      "inputs": [
        {
          "internalType": "uint256",
          "name": "tokenId",
          "type": "uint256"
        }
      ],
      "name": "userExpires",
      "outputs": [
        {
          "internalType": "uint256",
          "name": "",
          "type": "uint256"
        }
      ],
      "stateMutability": "view",
      "type": "function"
    },
    {
      "inputs": [
        {
          "internalType": "uint256",
          "name": "tokenId",
          "type": "uint256"
        }
      ],
      "name": "userOf",
      "outputs": [
        {
          "internalType": "address",
          "name": "",
          "type": "address"
        }
      ],
      "stateMutability": "view",
      "type": "function"
    }
  ],
  "bytecode": "0x60806040523480156200001157600080fd5b506040518060400160405280600481526020017f426f6f6b000000000000000000000000000000000000000000000000000000008152506040518060400160405280600281526020017f424b0000000000000000000000000000000000000000000000000000000000008152508181816000908162000091919062000328565b508060019081620000a3919062000328565b50505050506200040f565b600081519050919050565b7f4e487b7100000000000000000000000000000000000000000000000000000000600052604160045260246000fd5b7f4e487b7100000000000000000000000000000000000000000000000000000000600052602260045260246000fd5b600060028204905060018216806200013057607f821691505b602082108103620001465762000145620000e8565b5b50919050565b60008190508160005260206000209050919050565b60006020601f8301049050919050565b600082821b905092915050565b600060088302620001b07fffffffffffffffffffffffffffffffffffffffffffffffffffffffffffffffff8262000171565b620001bc868362000171565b95508019841693508086168417925050509392505050565b6000819050919050565b6000819050919050565b60006200020962000203620001fd84620001d4565b620001de565b620001d4565b9050919050565b6000819050919050565b6200022583620001e8565b6200023d620002348262000210565b8484546200017e565b825550505050565b600090565b6200025462000245565b620002618184846200021a565b505050565b5b8181101562000289576200027d6000826200024a565b60018101905062000267565b5050565b601f821115620002d857620002a2816200014c565b620002ad8462000161565b81016020851015620002bd578190505b620002d5620002cc8562000161565b83018262000266565b50505b505050565b600082821c905092915050565b6000620002fd60001984600802620002dd565b1980831691505092915050565b6000620003188383620002ea565b9150826002028217905092915050565b6200033382620000ae565b67ffffffffffffffff8111156200034f576200034e620000b9565b5b6200035b825462000117565b620003688282856200028d565b600060209050601f831160018114620003a057600084156200038b578287015190505b6200039785826200030a565b86555062000407565b601f198416620003b0866200014c565b60005b82811015620003da57848901518255600182019150602085019450602081019050620003b3565b86831015620003fa5784890151620003f6601f891682620002ea565b8355505b6001600288020188555050505b505050505050565b6135c4806200041f6000396000f3fe608060405234801561001057600080fd5b50600436106101165760003560e01c806373b7763c116100a2578063b88d4fde11610071578063b88d4fde146102ef578063c2f1f14a1461030b578063c87b56dd1461033b578063e030565e1461036b578063e985e9c51461038757610116565b806373b7763c146102695780638fc88c481461028557806395d89b41146102b5578063a22cb465146102d357610116565b806323b872dd116100e957806323b872dd146101b557806342842e0e146101d157806342966c68146101ed5780636352211e1461020957806370a082311461023957610116565b806301ffc9a71461011b57806306fdde031461014b578063081812fc14610169578063095ea7b314610199575b600080fd5b610135600480360381019061013091906121f9565b6103b7565b6040516101429190612241565b60405180910390f35b610153610431565b60405161016091906122ec565b60405180910390f35b610183600480360381019061017e9190612344565b6104c3565b60405161019091906123b2565b60405180910390f35b6101b360048036038101906101ae91906123f9565b610509565b005b6101cf60048036038101906101ca9190612439565b610620565b005b6101eb60048036038101906101e69190612439565b610680565b005b61020760048036038101906102029190612344565b6106a0565b005b610223600480360381019061021e9190612344565b6106ac565b60405161023091906123b2565b60405180910390f35b610253600480360381019061024e919061248c565b610732565b60405161026091906124c8565b60405180910390f35b610283600480360381019061027e919061273e565b6107e9565b005b61029f600480360381019061029a9190612344565b610830565b6040516102ac91906124c8565b60405180910390f35b6102bd61086e565b6040516102ca91906122ec565b60405180910390f35b6102ed60048036038101906102e891906127f5565b610900565b005b610309600480360381019061030491906128d6565b610916565b005b61032560048036038101906103209190612344565b610978565b60405161033291906123b2565b60405180910390f35b61035560048036038101906103509190612344565b6109fd565b60405161036291906122ec565b60405180910390f35b61038560048036038101906103809190612959565b610b0f565b005b6103a1600480360381019061039c91906129ac565b610c32565b6040516103ae9190612241565b60405180910390f35b60007fad092b5c000000000000000000000000000000000000000000000000000000007bffffffffffffffffffffffffffffffffffffffffffffffffffffffff1916827bffffffffffffffffffffffffffffffffffffffffffffffffffffffff1916148061042a575061042982610cc6565b5b9050919050565b60606000805461044090612a1b565b80601f016020809104026020016040519081016040528092919081815260200182805461046c90612a1b565b80156104b95780601f1061048e576101008083540402835291602001916104b9565b820191906000526020600020905b81548152906001019060200180831161049c57829003601f168201915b5050505050905090565b60006104ce82610d27565b6004600083815260200190815260200160002060009054906101000a900473ffffffffffffffffffffffffffffffffffffffff169050919050565b6000610514826106ac565b90508073ffffffffffffffffffffffffffffffffffffffff168373ffffffffffffffffffffffffffffffffffffffff1603610584576040517f08c379a000000000000000000000000000000000000000000000000000000000815260040161057b90612abe565b60405180910390fd5b8073ffffffffffffffffffffffffffffffffffffffff166105a3610d72565b73ffffffffffffffffffffffffffffffffffffffff1614806105d257506105d1816105cc610d72565b610c32565b5b610611576040517f08c379a000000000000000000000000000000000000000000000000000000000815260040161060890612b50565b60405180910390fd5b61061b8383610d7a565b505050565b61063161062b610d72565b82610e33565b610670576040517f08c379a000000000000000000000000000000000000000000000000000000000815260040161066790612be2565b60405180910390fd5b61067b838383610ec8565b505050565b61069b83838360405180602001604052806000815250610916565b505050565b6106a9816111c1565b50565b6000806106b883611214565b9050600073ffffffffffffffffffffffffffffffffffffffff168173ffffffffffffffffffffffffffffffffffffffff1603610729576040517f08c379a000000000000000000000000000000000000000000000000000000000815260040161072090612c4e565b60405180910390fd5b80915050919050565b60008073ffffffffffffffffffffffffffffffffffffffff168273ffffffffffffffffffffffffffffffffffffffff16036107a2576040517f08c379a000000000000000000000000000000000000000000000000000000000815260040161079990612ce0565b60405180910390fd5b600360008373ffffffffffffffffffffffffffffffffffffffff1673ffffffffffffffffffffffffffffffffffffffff168152602001908152602001600020549050919050565b6107f36009611251565b60006107ff6009611267565b905061080b3382611275565b6108158185611293565b61081f8184611337565b61082a813384610b0f565b50505050565b60006008600083815260200190815260200160002060000160149054906101000a900467ffffffffffffffff1667ffffffffffffffff169050919050565b60606001805461087d90612a1b565b80601f01602080910402602001604051908101604052809291908181526020018280546108a990612a1b565b80156108f65780601f106108cb576101008083540402835291602001916108f6565b820191906000526020600020905b8154815290600101906020018083116108d957829003601f168201915b5050505050905090565b61091261090b610d72565b83836113e2565b5050565b610927610921610d72565b83610e33565b610966576040517f08c379a000000000000000000000000000000000000000000000000000000000815260040161095d90612be2565b60405180910390fd5b6109728484848461154e565b50505050565b6000426008600084815260200190815260200160002060000160149054906101000a900467ffffffffffffffff1667ffffffffffffffff16106109f3576008600083815260200190815260200160002060000160009054906101000a900473ffffffffffffffffffffffffffffffffffffffff1690506109f8565b600090505b919050565b6060610a0882610d27565b6000600660008481526020019081526020016000208054610a2890612a1b565b80601f0160208091040260200160405190810160405280929190818152602001828054610a5490612a1b565b8015610aa15780601f10610a7657610100808354040283529160200191610aa1565b820191906000526020600020905b815481529060010190602001808311610a8457829003601f168201915b505050505090506000610ab26115aa565b90506000815103610ac7578192505050610b0a565b600082511115610afc578082604051602001610ae4929190612d3c565b60405160208183030381529060405292505050610b0a565b610b05846115c1565b925050505b919050565b610b193384610e33565b610b58576040517f08c379a0000000000000000000000000000000000000000000000000000000008152600401610b4f90612dd2565b60405180910390fd5b6000600860008581526020019081526020016000209050828160000160006101000a81548173ffffffffffffffffffffffffffffffffffffffff021916908373ffffffffffffffffffffffffffffffffffffffff160217905550818160000160146101000a81548167ffffffffffffffff021916908367ffffffffffffffff1602179055508273ffffffffffffffffffffffffffffffffffffffff16847f4e06b4e7000e659094299b3533b47b6aa8ad048e95e872d23d1f4ee55af89cfe84604051610c249190612e01565b60405180910390a350505050565b6000600560008473ffffffffffffffffffffffffffffffffffffffff1673ffffffffffffffffffffffffffffffffffffffff16815260200190815260200160002060008373ffffffffffffffffffffffffffffffffffffffff1673ffffffffffffffffffffffffffffffffffffffff16815260200190815260200160002060009054906101000a900460ff16905092915050565b6000634906490660e01b7bffffffffffffffffffffffffffffffffffffffffffffffffffffffff1916827bffffffffffffffffffffffffffffffffffffffffffffffffffffffff19161480610d205750610d1f82611629565b5b9050919050565b610d308161170b565b610d6f576040517f08c379a0000000000000000000000000000000000000000000000000000000008152600401610d6690612c4e565b60405180910390fd5b50565b600033905090565b816004600083815260200190815260200160002060006101000a81548173ffffffffffffffffffffffffffffffffffffffff021916908373ffffffffffffffffffffffffffffffffffffffff160217905550808273ffffffffffffffffffffffffffffffffffffffff16610ded836106ac565b73ffffffffffffffffffffffffffffffffffffffff167f8c5be1e5ebec7d5bd14f71427d1e84f3dd0314c0f7b2291e5b200ac8c7c3b92560405160405180910390a45050565b600080610e3f836106ac565b90508073ffffffffffffffffffffffffffffffffffffffff168473ffffffffffffffffffffffffffffffffffffffff161480610e815750610e808185610c32565b5b80610ebf57508373ffffffffffffffffffffffffffffffffffffffff16610ea7846104c3565b73ffffffffffffffffffffffffffffffffffffffff16145b91505092915050565b8273ffffffffffffffffffffffffffffffffffffffff16610ee8826106ac565b73ffffffffffffffffffffffffffffffffffffffff1614610f3e576040517f08c379a0000000000000000000000000000000000000000000000000000000008152600401610f3590612e8e565b60405180910390fd5b600073ffffffffffffffffffffffffffffffffffffffff168273ffffffffffffffffffffffffffffffffffffffff1603610fad576040517f08c379a0000000000000000000000000000000000000000000000000000000008152600401610fa490612f20565b60405180910390fd5b610fba838383600161174c565b8273ffffffffffffffffffffffffffffffffffffffff16610fda826106ac565b73ffffffffffffffffffffffffffffffffffffffff1614611030576040517f08c379a000000000000000000000000000000000000000000000000000000000815260040161102790612e8e565b60405180910390fd5b6004600082815260200190815260200160002060006101000a81549073ffffffffffffffffffffffffffffffffffffffff02191690556001600360008573ffffffffffffffffffffffffffffffffffffffff1673ffffffffffffffffffffffffffffffffffffffff168152602001908152602001600020600082825403925050819055506001600360008473ffffffffffffffffffffffffffffffffffffffff1673ffffffffffffffffffffffffffffffffffffffff16815260200190815260200160002060008282540192505081905550816002600083815260200190815260200160002060006101000a81548173ffffffffffffffffffffffffffffffffffffffff021916908373ffffffffffffffffffffffffffffffffffffffff160217905550808273ffffffffffffffffffffffffffffffffffffffff168473ffffffffffffffffffffffffffffffffffffffff167fddf252ad1be2c89b69c2b068fc378daa952ba7f163c4a11628f55a4df523b3ef60405160405180910390a46111bc83838360016118ac565b505050565b6111ca816118b2565b60006006600083815260200190815260200160002080546111ea90612a1b565b9050146112115760066000828152602001908152602001600020600061121091906120b3565b5b50565b60006002600083815260200190815260200160002060009054906101000a900473ffffffffffffffffffffffffffffffffffffffff169050919050565b6001816000016000828254019250508190555050565b600081600001549050919050565b61128f828260405180602001604052806000815250611a00565b5050565b61129c8261170b565b6112db576040517f08c379a00000000000000000000000000000000000000000000000000000000081526004016112d290612fb2565b60405180910390fd5b806006600084815260200190815260200160002090816112fb919061317e565b507ff8e1a15aba9398e019f0b49df1a4fde98ee17ae345cb5f6b5e2c27f5033e8ce78260405161132b91906124c8565b60405180910390a15050565b6113408261170b565b61137f576040517f08c379a000000000000000000000000000000000000000000000000000000000815260040161137690612fb2565b60405180910390fd5b806007600084815260200190815260200160002090805190602001906113a69291906120f3565b507ff8e1a15aba9398e019f0b49df1a4fde98ee17ae345cb5f6b5e2c27f5033e8ce7826040516113d691906124c8565b60405180910390a15050565b8173ffffffffffffffffffffffffffffffffffffffff168373ffffffffffffffffffffffffffffffffffffffff1603611450576040517f08c379a00000000000000000000000000000000000000000000000000000000081526004016114479061329c565b60405180910390fd5b80600560008573ffffffffffffffffffffffffffffffffffffffff1673ffffffffffffffffffffffffffffffffffffffff16815260200190815260200160002060008473ffffffffffffffffffffffffffffffffffffffff1673ffffffffffffffffffffffffffffffffffffffff16815260200190815260200160002060006101000a81548160ff0219169083151502179055508173ffffffffffffffffffffffffffffffffffffffff168373ffffffffffffffffffffffffffffffffffffffff167f17307eab39ab6107e8899845ad3d59bd9653f200f220920489ca2b5937696c31836040516115419190612241565b60405180910390a3505050565b611559848484610ec8565b61156584848484611a5b565b6115a4576040517f08c379a000000000000000000000000000000000000000000000000000000000815260040161159b9061332e565b60405180910390fd5b50505050565b606060405180602001604052806000815250905090565b60606115cc82610d27565b60006115d66115aa565b905060008151116115f65760405180602001604052806000815250611621565b8061160084611be2565b604051602001611611929190612d3c565b6040516020818303038152906040525b915050919050565b60007f80ac58cd000000000000000000000000000000000000000000000000000000007bffffffffffffffffffffffffffffffffffffffffffffffffffffffff1916827bffffffffffffffffffffffffffffffffffffffffffffffffffffffff191614806116f457507f5b5e139f000000000000000000000000000000000000000000000000000000007bffffffffffffffffffffffffffffffffffffffffffffffffffffffff1916827bffffffffffffffffffffffffffffffffffffffffffffffffffffffff1916145b80611704575061170382611cb0565b5b9050919050565b60008073ffffffffffffffffffffffffffffffffffffffff1661172d83611214565b73ffffffffffffffffffffffffffffffffffffffff1614159050919050565b61175884848484611d1a565b8273ffffffffffffffffffffffffffffffffffffffff168473ffffffffffffffffffffffffffffffffffffffff16141580156117f75750600073ffffffffffffffffffffffffffffffffffffffff166008600084815260200190815260200160002060000160009054906101000a900473ffffffffffffffffffffffffffffffffffffffff1673ffffffffffffffffffffffffffffffffffffffff1614155b156118a65760086000838152602001908152602001600020600080820160006101000a81549073ffffffffffffffffffffffffffffffffffffffff02191690556000820160146101000a81549067ffffffffffffffff02191690555050600073ffffffffffffffffffffffffffffffffffffffff16827f4e06b4e7000e659094299b3533b47b6aa8ad048e95e872d23d1f4ee55af89cfe600060405161189d9190613389565b60405180910390a35b50505050565b50505050565b60006118bd826106ac565b90506118cd81600084600161174c565b6118d6826106ac565b90506004600083815260200190815260200160002060006101000a81549073ffffffffffffffffffffffffffffffffffffffff02191690556001600360008373ffffffffffffffffffffffffffffffffffffffff1673ffffffffffffffffffffffffffffffffffffffff168152602001908152602001600020600082825403925050819055506002600083815260200190815260200160002060006101000a81549073ffffffffffffffffffffffffffffffffffffffff021916905581600073ffffffffffffffffffffffffffffffffffffffff168273ffffffffffffffffffffffffffffffffffffffff167fddf252ad1be2c89b69c2b068fc378daa952ba7f163c4a11628f55a4df523b3ef60405160405180910390a46119fc8160008460016118ac565b5050565b611a0a8383611d20565b611a176000848484611a5b565b611a56576040517f08c379a0000000000000000000000000000000000000000000000000000000008152600401611a4d9061332e565b60405180910390fd5b505050565b6000611a7c8473ffffffffffffffffffffffffffffffffffffffff16611f3d565b15611bd5578373ffffffffffffffffffffffffffffffffffffffff1663150b7a02611aa5610d72565b8786866040518563ffffffff1660e01b8152600401611ac794939291906133f9565b6020604051808303816000875af1925050508015611b0357506040513d601f19601f82011682018060405250810190611b00919061345a565b60015b611b85573d8060008114611b33576040519150601f19603f3d011682016040523d82523d6000602084013e611b38565b606091505b506000815103611b7d576040517f08c379a0000000000000000000000000000000000000000000000000000000008152600401611b749061332e565b60405180910390fd5b805181602001fd5b63150b7a0260e01b7bffffffffffffffffffffffffffffffffffffffffffffffffffffffff1916817bffffffffffffffffffffffffffffffffffffffffffffffffffffffff191614915050611bda565b600190505b949350505050565b606060006001611bf184611f60565b01905060008167ffffffffffffffff811115611c1057611c0f6124ed565b5b6040519080825280601f01601f191660200182016040528015611c425781602001600182028036833780820191505090505b509050600082602001820190505b600115611ca5578080600190039150507f3031323334353637383961626364656600000000000000000000000000000000600a86061a8153600a8581611c9957611c98613487565b5b04945060008503611c50575b819350505050919050565b60007f01ffc9a7000000000000000000000000000000000000000000000000000000007bffffffffffffffffffffffffffffffffffffffffffffffffffffffff1916827bffffffffffffffffffffffffffffffffffffffffffffffffffffffff1916149050919050565b50505050565b600073ffffffffffffffffffffffffffffffffffffffff168273ffffffffffffffffffffffffffffffffffffffff1603611d8f576040517f08c379a0000000000000000000000000000000000000000000000000000000008152600401611d8690613502565b60405180910390fd5b611d988161170b565b15611dd8576040517f08c379a0000000000000000000000000000000000000000000000000000000008152600401611dcf9061356e565b60405180910390fd5b611de660008383600161174c565b611def8161170b565b15611e2f576040517f08c379a0000000000000000000000000000000000000000000000000000000008152600401611e269061356e565b60405180910390fd5b6001600360008473ffffffffffffffffffffffffffffffffffffffff1673ffffffffffffffffffffffffffffffffffffffff16815260200190815260200160002060008282540192505081905550816002600083815260200190815260200160002060006101000a81548173ffffffffffffffffffffffffffffffffffffffff021916908373ffffffffffffffffffffffffffffffffffffffff160217905550808273ffffffffffffffffffffffffffffffffffffffff16600073ffffffffffffffffffffffffffffffffffffffff167fddf252ad1be2c89b69c2b068fc378daa952ba7f163c4a11628f55a4df523b3ef60405160405180910390a4611f396000838360016118ac565b5050565b6000808273ffffffffffffffffffffffffffffffffffffffff163b119050919050565b600080600090507a184f03e93ff9f4daa797ed6e38ed64bf6a1f0100000000000000008310611fbe577a184f03e93ff9f4daa797ed6e38ed64bf6a1f0100000000000000008381611fb457611fb3613487565b5b0492506040810190505b6d04ee2d6d415b85acef81000000008310611ffb576d04ee2d6d415b85acef81000000008381611ff157611ff0613487565b5b0492506020810190505b662386f26fc10000831061202a57662386f26fc1000083816120205761201f613487565b5b0492506010810190505b6305f5e1008310612053576305f5e100838161204957612048613487565b5b0492506008810190505b612710831061207857612710838161206e5761206d613487565b5b0492506004810190505b6064831061209b576064838161209157612090613487565b5b0492506002810190505b600a83106120aa576001810190505b80915050919050565b5080546120bf90612a1b565b6000825580601f106120d157506120f0565b601f0160209004906000526020600020908101906120ef919061214c565b5b50565b82805482825590600052602060002090810192821561213b579160200282015b8281111561213a57825182908161212a919061317e565b5091602001919060010190612113565b5b5090506121489190612169565b5090565b5b8082111561216557600081600090555060010161214d565b5090565b5b80821115612189576000818161218091906120b3565b5060010161216a565b5090565b6000604051905090565b600080fd5b600080fd5b60007fffffffff0000000000000000000000000000000000000000000000000000000082169050919050565b6121d6816121a1565b81146121e157600080fd5b50565b6000813590506121f3816121cd565b92915050565b60006020828403121561220f5761220e612197565b5b600061221d848285016121e4565b91505092915050565b60008115159050919050565b61223b81612226565b82525050565b60006020820190506122566000830184612232565b92915050565b600081519050919050565b600082825260208201905092915050565b60005b8381101561229657808201518184015260208101905061227b565b60008484015250505050565b6000601f19601f8301169050919050565b60006122be8261225c565b6122c88185612267565b93506122d8818560208601612278565b6122e1816122a2565b840191505092915050565b6000602082019050818103600083015261230681846122b3565b905092915050565b6000819050919050565b6123218161230e565b811461232c57600080fd5b50565b60008135905061233e81612318565b92915050565b60006020828403121561235a57612359612197565b5b60006123688482850161232f565b91505092915050565b600073ffffffffffffffffffffffffffffffffffffffff82169050919050565b600061239c82612371565b9050919050565b6123ac81612391565b82525050565b60006020820190506123c760008301846123a3565b92915050565b6123d681612391565b81146123e157600080fd5b50565b6000813590506123f3816123cd565b92915050565b600080604083850312156124105761240f612197565b5b600061241e858286016123e4565b925050602061242f8582860161232f565b9150509250929050565b60008060006060848603121561245257612451612197565b5b6000612460868287016123e4565b9350506020612471868287016123e4565b92505060406124828682870161232f565b9150509250925092565b6000602082840312156124a2576124a1612197565b5b60006124b0848285016123e4565b91505092915050565b6124c28161230e565b82525050565b60006020820190506124dd60008301846124b9565b92915050565b600080fd5b600080fd5b7f4e487b7100000000000000000000000000000000000000000000000000000000600052604160045260246000fd5b612525826122a2565b810181811067ffffffffffffffff82111715612544576125436124ed565b5b80604052505050565b600061255761218d565b9050612563828261251c565b919050565b600067ffffffffffffffff821115612583576125826124ed565b5b61258c826122a2565b9050602081019050919050565b82818337600083830152505050565b60006125bb6125b684612568565b61254d565b9050828152602081018484840111156125d7576125d66124e8565b5b6125e2848285612599565b509392505050565b600082601f8301126125ff576125fe6124e3565b5b813561260f8482602086016125a8565b91505092915050565b600067ffffffffffffffff821115612633576126326124ed565b5b602082029050602081019050919050565b600080fd5b600061265c61265784612618565b61254d565b9050808382526020820190506020840283018581111561267f5761267e612644565b5b835b818110156126c657803567ffffffffffffffff8111156126a4576126a36124e3565b5b8086016126b189826125ea565b85526020850194505050602081019050612681565b5050509392505050565b600082601f8301126126e5576126e46124e3565b5b81356126f5848260208601612649565b91505092915050565b600067ffffffffffffffff82169050919050565b61271b816126fe565b811461272657600080fd5b50565b60008135905061273881612712565b92915050565b60008060006060848603121561275757612756612197565b5b600084013567ffffffffffffffff8111156127755761277461219c565b5b612781868287016125ea565b935050602084013567ffffffffffffffff8111156127a2576127a161219c565b5b6127ae868287016126d0565b92505060406127bf86828701612729565b9150509250925092565b6127d281612226565b81146127dd57600080fd5b50565b6000813590506127ef816127c9565b92915050565b6000806040838503121561280c5761280b612197565b5b600061281a858286016123e4565b925050602061282b858286016127e0565b9150509250929050565b600067ffffffffffffffff8211156128505761284f6124ed565b5b612859826122a2565b9050602081019050919050565b600061287961287484612835565b61254d565b905082815260208101848484011115612895576128946124e8565b5b6128a0848285612599565b509392505050565b600082601f8301126128bd576128bc6124e3565b5b81356128cd848260208601612866565b91505092915050565b600080600080608085870312156128f0576128ef612197565b5b60006128fe878288016123e4565b945050602061290f878288016123e4565b93505060406129208782880161232f565b925050606085013567ffffffffffffffff8111156129415761294061219c565b5b61294d878288016128a8565b91505092959194509250565b60008060006060848603121561297257612971612197565b5b60006129808682870161232f565b9350506020612991868287016123e4565b92505060406129a286828701612729565b9150509250925092565b600080604083850312156129c3576129c2612197565b5b60006129d1858286016123e4565b92505060206129e2858286016123e4565b9150509250929050565b7f4e487b7100000000000000000000000000000000000000000000000000000000600052602260045260246000fd5b60006002820490506001821680612a3357607f821691505b602082108103612a4657612a456129ec565b5b50919050565b7f4552433732313a20617070726f76616c20746f2063757272656e74206f776e6560008201527f7200000000000000000000000000000000000000000000000000000000000000602082015250565b6000612aa8602183612267565b9150612ab382612a4c565b604082019050919050565b60006020820190508181036000830152612ad781612a9b565b9050919050565b7f4552433732313a20617070726f76652063616c6c6572206973206e6f7420746f60008201527f6b656e206f776e6572206f7220617070726f76656420666f7220616c6c000000602082015250565b6000612b3a603d83612267565b9150612b4582612ade565b604082019050919050565b60006020820190508181036000830152612b6981612b2d565b9050919050565b7f4552433732313a2063616c6c6572206973206e6f7420746f6b656e206f776e6560008201527f72206f7220617070726f76656400000000000000000000000000000000000000602082015250565b6000612bcc602d83612267565b9150612bd782612b70565b604082019050919050565b60006020820190508181036000830152612bfb81612bbf565b9050919050565b7f4552433732313a20696e76616c696420746f6b656e2049440000000000000000600082015250565b6000612c38601883612267565b9150612c4382612c02565b602082019050919050565b60006020820190508181036000830152612c6781612c2b565b9050919050565b7f4552433732313a2061646472657373207a65726f206973206e6f74206120766160008201527f6c6964206f776e65720000000000000000000000000000000000000000000000602082015250565b6000612cca602983612267565b9150612cd582612c6e565b604082019050919050565b60006020820190508181036000830152612cf981612cbd565b9050919050565b600081905092915050565b6000612d168261225c565b612d208185612d00565b9350612d30818560208601612278565b80840191505092915050565b6000612d488285612d0b565b9150612d548284612d0b565b91508190509392505050565b7f4552433732313a207472616e736665722063616c6c6572206973206e6f74206f60008201527f776e6572206e6f7220617070726f766564000000000000000000000000000000602082015250565b6000612dbc603183612267565b9150612dc782612d60565b604082019050919050565b60006020820190508181036000830152612deb81612daf565b9050919050565b612dfb816126fe565b82525050565b6000602082019050612e166000830184612df2565b92915050565b7f4552433732313a207472616e736665722066726f6d20696e636f72726563742060008201527f6f776e6572000000000000000000000000000000000000000000000000000000602082015250565b6000612e78602583612267565b9150612e8382612e1c565b604082019050919050565b60006020820190508181036000830152612ea781612e6b565b9050919050565b7f4552433732313a207472616e7366657220746f20746865207a65726f2061646460008201527f7265737300000000000000000000000000000000000000000000000000000000602082015250565b6000612f0a602483612267565b9150612f1582612eae565b604082019050919050565b60006020820190508181036000830152612f3981612efd565b9050919050565b7f45524337323155524953746f726167653a2055524920736574206f66206e6f6e60008201527f6578697374656e7420746f6b656e000000000000000000000000000000000000602082015250565b6000612f9c602e83612267565b9150612fa782612f40565b604082019050919050565b60006020820190508181036000830152612fcb81612f8f565b9050919050565b60008190508160005260206000209050919050565b60006020601f8301049050919050565b600082821b905092915050565b6000600883026130347fffffffffffffffffffffffffffffffffffffffffffffffffffffffffffffffff82612ff7565b61303e8683612ff7565b95508019841693508086168417925050509392505050565b6000819050919050565b600061307b6130766130718461230e565b613056565b61230e565b9050919050565b6000819050919050565b61309583613060565b6130a96130a182613082565b848454613004565b825550505050565b600090565b6130be6130b1565b6130c981848461308c565b505050565b5b818110156130ed576130e26000826130b6565b6001810190506130cf565b5050565b601f8211156131325761310381612fd2565b61310c84612fe7565b8101602085101561311b578190505b61312f61312785612fe7565b8301826130ce565b50505b505050565b600082821c905092915050565b600061315560001984600802613137565b1980831691505092915050565b600061316e8383613144565b9150826002028217905092915050565b6131878261225c565b67ffffffffffffffff8111156131a05761319f6124ed565b5b6131aa8254612a1b565b6131b58282856130f1565b600060209050601f8311600181146131e857600084156131d6578287015190505b6131e08582613162565b865550613248565b601f1984166131f686612fd2565b60005b8281101561321e578489015182556001820191506020850194506020810190506131f9565b8683101561323b5784890151613237601f891682613144565b8355505b6001600288020188555050505b505050505050565b7f4552433732313a20617070726f766520746f2063616c6c657200000000000000600082015250565b6000613286601983612267565b915061329182613250565b602082019050919050565b600060208201905081810360008301526132b581613279565b9050919050565b7f4552433732313a207472616e7366657220746f206e6f6e20455243373231526560008201527f63656976657220696d706c656d656e7465720000000000000000000000000000602082015250565b6000613318603283612267565b9150613323826132bc565b604082019050919050565b600060208201905081810360008301526133478161330b565b9050919050565b6000819050919050565b600061337361336e6133698461334e565b613056565b6126fe565b9050919050565b61338381613358565b82525050565b600060208201905061339e600083018461337a565b92915050565b600081519050919050565b600082825260208201905092915050565b60006133cb826133a4565b6133d581856133af565b93506133e5818560208601612278565b6133ee816122a2565b840191505092915050565b600060808201905061340e60008301876123a3565b61341b60208301866123a3565b61342860408301856124b9565b818103606083015261343a81846133c0565b905095945050505050565b600081519050613454816121cd565b92915050565b6000602082840312156134705761346f612197565b5b600061347e84828501613445565b91505092915050565b7f4e487b7100000000000000000000000000000000000000000000000000000000600052601260045260246000fd5b7f4552433732313a206d696e7420746f20746865207a65726f2061646472657373600082015250565b60006134ec602083612267565b91506134f7826134b6565b602082019050919050565b6000602082019050818103600083015261351b816134df565b9050919050565b7f4552433732313a20746f6b656e20616c7265616479206d696e74656400000000600082015250565b6000613558601c83612267565b915061356382613522565b602082019050919050565b600060208201905081810360008301526135878161354b565b905091905056fea26469706673582212208041abb242571615661ea7f75b7be3d0efacb3ff456011705a349fda7ad5ce9464736f6c63430008130033",
  "linkReferences": {},
  "deployedLinkReferences": {}
}